{
  "abi": [
    {
      "inputs": [],
      "stateMutability": "nonpayable",
      "type": "constructor"
    },
    {
      "anonymous": false,
      "inputs": [
        {
          "indexed": true,
          "internalType": "contract Questionnaire",
          "name": "question",
          "type": "address"
        }
      ],
      "name": "QuestionCreated",
      "type": "event"
    },
    {
      "inputs": [
        {
          "internalType": "string",
          "name": "_question",
          "type": "string"
        },
        {
          "internalType": "bytes32",
          "name": "_answer",
          "type": "bytes32"
        }
      ],
      "name": "createQuestionnaire",
      "outputs": [],
      "stateMutability": "nonpayable",
      "type": "function"
    },
    {
      "inputs": [],
      "name": "getQuestions",
      "outputs": [
        {
          "internalType": "contract Questionnaire[]",
          "name": "",
          "type": "address[]"
        }
      ],
      "stateMutability": "view",
      "type": "function"
    },
    {
      "inputs": [
        {
          "internalType": "uint256",
          "name": "",
          "type": "uint256"
        }
      ],
      "name": "questions",
      "outputs": [
        {
          "internalType": "contract Questionnaire",
          "name": "",
          "type": "address"
        }
      ],
      "stateMutability": "view",
      "type": "function"
    }
  ],
  "bytecode": {
    "object": "0x608060405234801561001057600080fd5b506109d4806100206000396000f3fe608060405234801561001057600080fd5b50600436106100415760003560e01c806331b1b9781461004657806397221ab714610076578063f51ea0651461008b575b600080fd5b6100596100543660046101ec565b6100a0565b6040516001600160a01b0390911681526020015b60405180910390f35b61007e6100ca565b60405161006d9190610205565b61009e610099366004610268565b61012c565b005b600081815481106100b057600080fd5b6000918252602090912001546001600160a01b0316905081565b6060600080548060200260200160405190810160405280929190818152602001828054801561012257602002820191906000526020600020905b81546001600160a01b03168152600190910190602001808311610104575b5050505050905090565b6000828260405161013c906101df565b61014792919061031d565b604051809103906000f080158015610163573d6000803e3d6000fd5b50600080546001810182558180527f290decd9548b62a8d60345a988386fc84ba6bc95484008f6362f93160ef3e5630180546001600160a01b0319166001600160a01b038416908117909155604051929350917f91c8496b0cdf55acd9f0f9ebdca50596d717bbf8fe7d29be340caa9703ba0fa09190a2505050565b61062c8061037383390190565b6000602082840312156101fe57600080fd5b5035919050565b6020808252825182820181905260009190848201906040850190845b818110156102465783516001600160a01b031683529284019291840191600101610221565b50909695505050505050565b634e487b7160e01b600052604160045260246000fd5b6000806040838503121561027b57600080fd5b823567ffffffffffffffff8082111561029357600080fd5b818501915085601f8301126102a757600080fd5b8135818111156102b9576102b9610252565b604051601f8201601f19908116603f011681019083821181831017156102e1576102e1610252565b816040528281528860208487010111156102fa57600080fd5b826020860160208301376000602093820184015298969091013596505050505050565b604081526000835180604084015260005b8181101561034b576020818701810151606086840101520161032e565b506000606082850101526060601f19601f830116840101915050826020830152939250505056fe60806040526803139303139303139360bc1b60015560405161062c38038061062c8339810160408190526100329161005e565b600261003e83826101b6565b5060005550610275565b634e487b7160e01b600052604160045260246000fd5b6000806040838503121561007157600080fd5b82516001600160401b038082111561008857600080fd5b818501915085601f83011261009c57600080fd5b8151818111156100ae576100ae610048565b604051601f8201601f19908116603f011681019083821181831017156100d6576100d6610048565b816040528281526020935088848487010111156100f257600080fd5b600091505b8282101561011457848201840151818301850152908301906100f7565b6000928101840192909252509401519395939450505050565b600181811c9082168061014157607f821691505b60208210810361016157634e487b7160e01b600052602260045260246000fd5b50919050565b601f8211156101b157600081815260208120601f850160051c8101602086101561018e5750805b601f850160051c820191505b818110156101ad5782815560010161019a565b5050505b505050565b81516001600160401b038111156101cf576101cf610048565b6101e3816101dd845461012d565b84610167565b602080601f83116001811461021857600084156102005750858301515b600019600386901b1c1916600185901b1785556101ad565b600085815260208120601f198616915b8281101561024757888601518255948401946001909101908401610228565b50858210156102655787850151600019600388901b60f8161c191681555b5050505050600190811b01905550565b6103a8806102846000396000f3fe6080604052600436106100435760003560e01c80633fad9ae0146100ae5780634eee59b3146100d9578063a597201d146100fb578063bfa0b1331461011f5761007e565b3661007e576040514781527ff211ddfc8c4c07d6504db62548b9e57c3fd956eaf19471fa89abbc5ac9580149906020015b60405180910390a1005b6040514781527ff211ddfc8c4c07d6504db62548b9e57c3fd956eaf19471fa89abbc5ac958014990602001610074565b3480156100ba57600080fd5b506100c3610135565b6040516100d0919061025e565b60405180910390f35b3480156100e557600080fd5b506100f96100f43660046102ac565b6101c3565b005b34801561010757600080fd5b5061011160005481565b6040519081526020016100d0565b34801561012b57600080fd5b5061011160015481565b600280546101429061031e565b80601f016020809104026020016040519081016040528092919081815260200182805461016e9061031e565b80156101bb5780601f10610190576101008083540402835291602001916101bb565b820191906000526020600020905b81548152906001019060200180831161019e57829003601f168201915b505050505081565b60005460015483836040516020016101dd93929190610358565b60405160208183030381529060405280519060200120146101fd57600080fd5b471561025a576040517f2d98f000c881b01994fb29ae677a074705de44ff8360f0dc3e173c9cfa1eb13690600090a160405133904780156108fc02916000818181858888f19350505050158015610258573d6000803e3d6000fd5b505b5050565b600060208083528351808285015260005b8181101561028b5785810183015185820160400152820161026f565b506000604082860101526040601f19601f8301168501019250505092915050565b600080602083850312156102bf57600080fd5b823567ffffffffffffffff808211156102d757600080fd5b818501915085601f8301126102eb57600080fd5b8135818111156102fa57600080fd5b86602082850101111561030c57600080fd5b60209290920196919550909350505050565b600181811c9082168061033257607f821691505b60208210810361035257634e487b7160e01b600052602260045260246000fd5b50919050565b83815281836020830137600091016020019081529291505056fea2646970667358221220623ee87b5a3af94ccd36859cfc8495c27d96a4d83b1ffded015aff6e566a8eae64736f6c63430008100033a2646970667358221220b9f66f6052c5830eed918453ccac3e632771aa14438f143f62a5432b0f8afa1d64736f6c63430008100033",
    "linkReferences": {}
  },
  "methodIdentifiers": {
    "createQuestionnaire(string,bytes32)": "f51ea065",
    "getQuestions()": "97221ab7",
    "questions(uint256)": "31b1b978"
  },
  "id": 7
}